{
  "_format": "hh-sol-artifact-1",
  "contractName": "ConfidentialFlightBooking",
  "sourceName": "contracts/ConfidentialFlightBooking.sol",
  "abi": [
    {
      "inputs": [
        {
          "internalType": "address",
          "name": "_pauserSet",
          "type": "address"
        }
      ],
      "stateMutability": "nonpayable",
      "type": "constructor"
    },
    {
      "anonymous": false,
      "inputs": [
        {
          "indexed": true,
          "internalType": "uint32",
          "name": "bookingId",
          "type": "uint32"
        }
      ],
      "name": "BookingCancelled",
      "type": "event"
    },
    {
      "anonymous": false,
      "inputs": [
        {
          "indexed": true,
          "internalType": "uint32",
          "name": "bookingId",
          "type": "uint32"
        }
      ],
      "name": "BookingConfirmed",
      "type": "event"
    },
    {
      "anonymous": false,
      "inputs": [
        {
          "indexed": true,
          "internalType": "uint32",
          "name": "bookingId",
          "type": "uint32"
        },
        {
          "indexed": true,
          "internalType": "uint32",
          "name": "flightId",
          "type": "uint32"
        },
        {
          "indexed": true,
          "internalType": "address",
          "name": "passenger",
          "type": "address"
        }
      ],
      "name": "BookingCreated",
      "type": "event"
    },
    {
      "anonymous": false,
      "inputs": [
        {
          "indexed": true,
          "internalType": "uint256",
          "name": "requestId",
          "type": "uint256"
        },
        {
          "indexed": true,
          "internalType": "uint32",
          "name": "bookingId",
          "type": "uint32"
        }
      ],
      "name": "DecryptionRequested",
      "type": "event"
    },
    {
      "anonymous": false,
      "inputs": [
        {
          "indexed": true,
          "internalType": "uint32",
          "name": "flightId",
          "type": "uint32"
        },
        {
          "indexed": false,
          "internalType": "string",
          "name": "origin",
          "type": "string"
        },
        {
          "indexed": false,
          "internalType": "string",
          "name": "destination",
          "type": "string"
        },
        {
          "indexed": false,
          "internalType": "address",
          "name": "airline",
          "type": "address"
        }
      ],
      "name": "FlightAdded",
      "type": "event"
    },
    {
      "anonymous": false,
      "inputs": [
        {
          "indexed": true,
          "internalType": "uint32",
          "name": "bookingId",
          "type": "uint32"
        },
        {
          "indexed": true,
          "internalType": "address",
          "name": "passenger",
          "type": "address"
        }
      ],
      "name": "LoyaltyPointsAwarded",
      "type": "event"
    },
    {
      "anonymous": false,
      "inputs": [
        {
          "indexed": true,
          "internalType": "address",
          "name": "pauser",
          "type": "address"
        }
      ],
      "name": "Paused",
      "type": "event"
    },
    {
      "anonymous": false,
      "inputs": [
        {
          "indexed": true,
          "internalType": "uint32",
          "name": "bookingId",
          "type": "uint32"
        },
        {
          "indexed": true,
          "internalType": "address",
          "name": "passenger",
          "type": "address"
        }
      ],
      "name": "PaymentProcessed",
      "type": "event"
    },
    {
      "anonymous": false,
      "inputs": [
        {
          "indexed": true,
          "internalType": "uint32",
          "name": "bookingId",
          "type": "uint32"
        },
        {
          "indexed": false,
          "internalType": "uint256",
          "name": "requestId",
          "type": "uint256"
        }
      ],
      "name": "RefundInitiated",
      "type": "event"
    },
    {
      "anonymous": false,
      "inputs": [
        {
          "indexed": true,
          "internalType": "uint32",
          "name": "bookingId",
          "type": "uint32"
        },
        {
          "indexed": false,
          "internalType": "uint32",
          "name": "seatNumber",
          "type": "uint32"
        },
        {
          "indexed": false,
          "internalType": "address",
          "name": "passenger",
          "type": "address"
        }
      ],
      "name": "RefundProcessed",
      "type": "event"
    },
    {
      "anonymous": false,
      "inputs": [
        {
          "indexed": true,
          "internalType": "address",
          "name": "pauser",
          "type": "address"
        }
      ],
      "name": "Unpaused",
      "type": "event"
    },
    {
      "inputs": [
        {
          "internalType": "string",
          "name": "_origin",
          "type": "string"
        },
        {
          "internalType": "string",
          "name": "_destination",
          "type": "string"
        },
        {
          "internalType": "uint256",
          "name": "_departureTime",
          "type": "uint256"
        },
        {
          "internalType": "uint256",
          "name": "_arrivalTime",
          "type": "uint256"
        },
        {
          "internalType": "uint16",
          "name": "_totalSeats",
          "type": "uint16"
        },
        {
          "internalType": "uint16",
          "name": "_basePrice",
          "type": "uint16"
        }
      ],
      "name": "addFlight",
      "outputs": [],
      "stateMutability": "nonpayable",
      "type": "function"
    },
    {
      "inputs": [
        {
          "internalType": "uint32",
          "name": "_bookingId",
          "type": "uint32"
        },
        {
          "internalType": "uint64",
          "name": "_bonusPoints",
          "type": "uint64"
        }
      ],
      "name": "awardBonusPoints",
      "outputs": [],
      "stateMutability": "nonpayable",
      "type": "function"
    },
    {
      "inputs": [
        {
          "internalType": "uint32",
          "name": "_flightId",
          "type": "uint32"
        },
        {
          "internalType": "uint32",
          "name": "_passportNumber",
          "type": "uint32"
        },
        {
          "internalType": "string",
          "name": "_encryptedName",
          "type": "string"
        },
        {
          "internalType": "uint16",
          "name": "_age",
          "type": "uint16"
        },
        {
          "internalType": "uint32",
          "name": "_preferredSeat",
          "type": "uint32"
        },
        {
          "internalType": "bool",
          "name": "_hasSpecialNeeds",
          "type": "bool"
        },
        {
          "internalType": "uint32",
          "name": "_frequentFlyerNumber",
          "type": "uint32"
        },
        {
          "internalType": "bool",
          "name": "_isVIP",
          "type": "bool"
        },
        {
          "internalType": "bool",
          "name": "_hasInsurance",
          "type": "bool"
        }
      ],
      "name": "bookFlight",
      "outputs": [],
      "stateMutability": "payable",
      "type": "function"
    },
    {
      "inputs": [
        {
          "internalType": "uint32",
          "name": "",
          "type": "uint32"
        }
      ],
      "name": "bookings",
      "outputs": [
        {
          "internalType": "uint32",
          "name": "bookingId",
          "type": "uint32"
        },
        {
          "internalType": "uint32",
          "name": "flightId",
          "type": "uint32"
        },
        {
          "internalType": "address",
          "name": "passenger",
          "type": "address"
        },
        {
          "internalType": "euint16",
          "name": "paidAmount",
          "type": "bytes32"
        },
        {
          "internalType": "euint32",
          "name": "seatNumber",
          "type": "bytes32"
        },
        {
          "internalType": "uint256",
          "name": "bookingTime",
          "type": "uint256"
        },
        {
          "internalType": "bool",
          "name": "isConfirmed",
          "type": "bool"
        },
        {
          "internalType": "bool",
          "name": "isCancelled",
          "type": "bool"
        },
        {
          "internalType": "euint64",
          "name": "loyaltyPoints",
          "type": "bytes32"
        },
        {
          "internalType": "ebool",
          "name": "hasInsurance",
          "type": "bytes32"
        }
      ],
      "stateMutability": "view",
      "type": "function"
    },
    {
      "inputs": [
        {
          "internalType": "uint32",
          "name": "_bookingId",
          "type": "uint32"
        }
      ],
      "name": "cancelBooking",
      "outputs": [],
      "stateMutability": "nonpayable",
      "type": "function"
    },
    {
      "inputs": [
        {
          "internalType": "uint32",
          "name": "_flightId",
          "type": "uint32"
        },
        {
          "internalType": "uint32",
          "name": "_seatNumber",
          "type": "uint32"
        }
      ],
      "name": "checkSeatAvailability",
      "outputs": [
        {
          "internalType": "bool",
          "name": "",
          "type": "bool"
        }
      ],
      "stateMutability": "view",
      "type": "function"
    },
    {
      "inputs": [
        {
          "internalType": "uint32",
          "name": "_bookingId",
          "type": "uint32"
        }
      ],
      "name": "confirmBooking",
      "outputs": [],
      "stateMutability": "nonpayable",
      "type": "function"
    },
    {
      "inputs": [
        {
          "internalType": "uint32",
          "name": "",
          "type": "uint32"
        }
      ],
      "name": "flights",
      "outputs": [
        {
          "internalType": "uint32",
          "name": "flightId",
          "type": "uint32"
        },
        {
          "internalType": "string",
          "name": "origin",
          "type": "string"
        },
        {
          "internalType": "string",
          "name": "destination",
          "type": "string"
        },
        {
          "internalType": "uint256",
          "name": "departureTime",
          "type": "uint256"
        },
        {
          "internalType": "uint256",
          "name": "arrivalTime",
          "type": "uint256"
        },
        {
          "internalType": "uint16",
          "name": "totalSeats",
          "type": "uint16"
        },
        {
          "internalType": "uint16",
          "name": "availableSeats",
          "type": "uint16"
        },
        {
          "internalType": "euint16",
          "name": "basePrice",
          "type": "bytes32"
        },
        {
          "internalType": "bool",
          "name": "isActive",
          "type": "bool"
        },
        {
          "internalType": "address",
          "name": "airline",
          "type": "address"
        }
      ],
      "stateMutability": "view",
      "type": "function"
    },
    {
      "inputs": [
        {
          "internalType": "uint32",
          "name": "_bookingId",
          "type": "uint32"
        }
      ],
      "name": "getBookingInfo",
      "outputs": [
        {
          "internalType": "uint32",
          "name": "flightId",
          "type": "uint32"
        },
        {
          "internalType": "address",
          "name": "passenger",
          "type": "address"
        },
        {
          "internalType": "uint256",
          "name": "bookingTime",
          "type": "uint256"
        },
        {
          "internalType": "bool",
          "name": "isConfirmed",
          "type": "bool"
        },
        {
          "internalType": "bool",
          "name": "isCancelled",
          "type": "bool"
        }
      ],
      "stateMutability": "view",
      "type": "function"
    },
    {
      "inputs": [],
      "name": "getContractBalance",
      "outputs": [
        {
          "internalType": "uint256",
          "name": "",
          "type": "uint256"
        }
      ],
      "stateMutability": "view",
      "type": "function"
    },
    {
      "inputs": [
        {
          "internalType": "uint32",
          "name": "_flightId",
          "type": "uint32"
        }
      ],
      "name": "getFlightInfo",
      "outputs": [
        {
          "internalType": "string",
          "name": "origin",
          "type": "string"
        },
        {
          "internalType": "string",
          "name": "destination",
          "type": "string"
        },
        {
          "internalType": "uint256",
          "name": "departureTime",
          "type": "uint256"
        },
        {
          "internalType": "uint256",
          "name": "arrivalTime",
          "type": "uint256"
        },
        {
          "internalType": "uint16",
          "name": "totalSeats",
          "type": "uint16"
        },
        {
          "internalType": "uint16",
          "name": "availableSeats",
          "type": "uint16"
        },
        {
          "internalType": "bool",
          "name": "isActive",
          "type": "bool"
        },
        {
          "internalType": "address",
          "name": "airline",
          "type": "address"
        }
      ],
      "stateMutability": "view",
      "type": "function"
    },
    {
      "inputs": [
        {
          "internalType": "address",
          "name": "_passenger",
          "type": "address"
        }
      ],
      "name": "getPassengerBookings",
      "outputs": [
        {
          "internalType": "uint32[]",
          "name": "",
          "type": "uint32[]"
        }
      ],
      "stateMutability": "view",
      "type": "function"
    },
    {
      "inputs": [
        {
          "internalType": "euint16",
          "name": "_age",
          "type": "bytes32"
        }
      ],
      "name": "isAgeValid",
      "outputs": [
        {
          "internalType": "ebool",
          "name": "",
          "type": "bytes32"
        }
      ],
      "stateMutability": "nonpayable",
      "type": "function"
    },
    {
      "inputs": [],
      "name": "isPaused",
      "outputs": [
        {
          "internalType": "bool",
          "name": "",
          "type": "bool"
        }
      ],
      "stateMutability": "view",
      "type": "function"
    },
    {
      "inputs": [],
      "name": "nextBookingId",
      "outputs": [
        {
          "internalType": "uint32",
          "name": "",
          "type": "uint32"
        }
      ],
      "stateMutability": "view",
      "type": "function"
    },
    {
      "inputs": [],
      "name": "nextFlightId",
      "outputs": [
        {
          "internalType": "uint32",
          "name": "",
          "type": "uint32"
        }
      ],
      "stateMutability": "view",
      "type": "function"
    },
    {
      "inputs": [],
      "name": "owner",
      "outputs": [
        {
          "internalType": "address",
          "name": "",
          "type": "address"
        }
      ],
      "stateMutability": "view",
      "type": "function"
    },
    {
      "inputs": [
        {
          "internalType": "address",
          "name": "",
          "type": "address"
        },
        {
          "internalType": "uint256",
          "name": "",
          "type": "uint256"
        }
      ],
      "name": "passengerBookings",
      "outputs": [
        {
          "internalType": "uint32",
          "name": "",
          "type": "uint32"
        }
      ],
      "stateMutability": "view",
      "type": "function"
    },
    {
      "inputs": [],
      "name": "pause",
      "outputs": [],
      "stateMutability": "nonpayable",
      "type": "function"
    },
    {
      "inputs": [],
      "name": "paused",
      "outputs": [
        {
          "internalType": "bool",
          "name": "",
          "type": "bool"
        }
      ],
      "stateMutability": "view",
      "type": "function"
    },
    {
      "inputs": [],
      "name": "pauserSet",
      "outputs": [
        {
          "internalType": "contract PauserSet",
          "name": "",
          "type": "address"
        }
      ],
      "stateMutability": "view",
      "type": "function"
    },
    {
      "inputs": [],
      "name": "protocolId",
      "outputs": [
        {
          "internalType": "uint256",
          "name": "",
          "type": "uint256"
        }
      ],
      "stateMutability": "pure",
      "type": "function"
    },
    {
      "inputs": [],
      "name": "unpause",
      "outputs": [],
      "stateMutability": "nonpayable",
      "type": "function"
    },
    {
      "inputs": [
        {
          "internalType": "uint32",
          "name": "_flightId",
          "type": "uint32"
        },
        {
          "internalType": "bool",
          "name": "_isActive",
          "type": "bool"
        }
      ],
      "name": "updateFlightStatus",
      "outputs": [],
      "stateMutability": "nonpayable",
      "type": "function"
    },
    {
      "inputs": [],
      "name": "withdrawFunds",
      "outputs": [],
      "stateMutability": "nonpayable",
      "type": "function"
    }
  ],
  "bytecode": "0x6080346200024457601f62002a3e38819003918201601f19168301916001600160401b0383118484101762000249578084926020946040528339810103126200024457516001600160a01b038116908190036200024457606090620000636200025f565b60009281848093528260208201528260408201520152620000836200025f565b606073687820221192c5b662b25367f70076a37bc79b6c9182815273848b0066793bcc60346da1f49049357399b8d59580602083015273a02cda4ca3a71d7c46997716f4283aa851c2881291826040820152731364cbbf2cdf5032c47d8226a6f6fbd2afcdacac938491015260018060a01b0319937f9e7b61f58c47dc699ac88507c4f5bb9f121c03808c5676a8078fe583e464970090858254161790557f9e7b61f58c47dc699ac88507c4f5bb9f121c03808c5676a8078fe583e464970190848254161790557f9e7b61f58c47dc699ac88507c4f5bb9f121c03808c5676a8078fe583e464970290838254161790557f9e7b61f58c47dc699ac88507c4f5bb9f121c03808c5676a8078fe583e4649703918254161790558015620001f35781546001600160a81b031916179055600180546001600160c01b0319163363ffffffff60a01b191617600160a01b1763ffffffff60c01b1916600160c01b1790556040516127be9081620002808239f35b60405162461bcd60e51b815260206004820152602360248201527f5061757361626c653a20496e76616c696420506175736572536574206164647260448201526265737360e81b6064820152608490fd5b600080fd5b634e487b7160e01b600052604160045260246000fd5b60405190608082016001600160401b03811183821017620002495760405256fe6080604052600436101561001257600080fd5b60003560e01c80630cac9ee114611ec557806324600fc314611e7e57806326f20c7914611e575780632e27e69a1461151e5780633a9353ac1461145b5780633f4ba83a14611389578063477091b7146113135780635c975abb146104185780635d532e96146112c0578063696c9890146112145780636e23e7e4146111805780636f9fb98a1461114f578063700c9681146110f15780638456cb59146110275780638da5cb5b14610ffe57806392a42e8114610de75780639e70af8914610dbe578063ae52fe2c1461083e578063b00c5dc014610561578063b02559581461043e578063b187bd2614610418578063da1f12ab146103fb578063ec857e7d1461031f578063f3ab7ce11461015b5763fca592301461012f57600080fd5b3461015657600036600319011261015657602063ffffffff60015460a01c16604051908152f35b600080fd5b346101565760208060031936011261015657610175612018565b9061018860ff60005460a01c16156122bf565b63ffffffff80921690816000526005815260406000209260048454946101cb60018060a01b03808860401c1633149081156102fc575b81156102ee575b50612242565b019384549460ff8660081c166102b55760ff8616610270576101006004959661ff001916179055821c1660005252600560406000200161ffff9081815460101c1691821461025a576001610233920163ffff000082549160101b169063ffff00001916179055565b7f885bc001ac04b2da907c4e080985c011f918ace300d28eec0a59c552d5bd49c9600080a2005b634e487b7160e01b600052601160045260246000fd5b60405162461bcd60e51b815260048101859052601f60248201527f43616e6e6f742063616e63656c20636f6e6669726d656420626f6f6b696e67006044820152606490fd5b60405162461bcd60e51b8152600481018590526011602482015270105b1c9958591e4818d85b98d95b1b1959607a1b6044820152606490fd5b9050600154163314886101c5565b90508488871c166000528386528060076040600020015460081c163314906101be565b346101565760203660031901126101565763ffffffff8061033e612018565b16600052600460205260406000209081541661035c6001830161219d565b916103696002820161219d565b6003820154916004810154600582015461ffff916103b660076006860154950154956103a86040519a8b9a610140908c528060208d01528b01906120d4565b9089820360408b01526120d4565b6060880196909652608087015280821660a087015260101c1660c085015260e084015260ff8116151561010084015260081c6001600160a01b03166101208301520390f35b346101565760003660031901126101565760206040516127118152f35b3461015657600036600319011261015657602060ff60005460a01c166040519015158152f35b3461015657604036600319011261015657610457612018565b60243567ffffffffffffffff81168091036101565760009163ffffffff60018060a01b039161048b83600154163314612242565b1683526005602052602060408420926104ae60ff600486015460081c161561227f565b6044836000805160206127698339815191525416916040519687938492639cd07acb60e01b84526004840152600560248401525af1801561055557600090610521575b61051f935061051261050860058501928354612494565b80835530906126ec565b54915460401c16906126ec565b005b506020833d60201161054d575b8161053b6020938361205b565b810103126101565761051f92516104f1565b3d915061052e565b6040513d6000823e3d90fd5b34610156576020806003193601126101565760043560018060a01b0360008051602061276983398151915281815416916040519385856044816000639cd07acb60e01b9889835260126004840152600360248401525af193841561055557869060009561080e575b60009650604484865416916040519889938492835260786004840152600360248401525af1948515610555576000956107df575b508390868192821596876107cf575b156107c1575b6064858754169460006040519687948593631391547f60e01b8552600485015260248401528160448401525af1958615610555578792600097610790575b50809195610780575b15610772575b6064838554169560006040519788948593631d44e90160e21b8552600485015260248401528160448401525af1908115610555578593600092610741575b50818515610731575b1561071e575b606491925416936000604051958694859363d99882d560e01b8552600485015260248401528160448401525af1908115610555576000916106f1575b50604051908152f35b90508181813d8311610717575b610708818361205b565b810103126101565751826106e8565b503d6106fe565b6064915061072a6125fd565b91506106ac565b945061073b6125fd565b946106a6565b8481959293503d831161076b575b610759818361205b565b8101031261015657849251908661069d565b503d61074f565b5061077b61269c565b61065f565b945061078a61269c565b94610659565b8381949298503d83116107ba575b6107a8818361205b565b81010312610156578691519588610650565b503d61079e565b506107ca61269c565b610612565b93506107d961269c565b9361060c565b9094508581813d8311610807575b6107f7818361205b565b81010312610156575193866105fd565b503d6107ed565b945085813d8311610837575b610824818361205b565b81010312610156578560009551946105c9565b503d61081a565b346101565760c03660031901126101565760043567ffffffffffffffff81116101565761086f90369060040161207d565b60243567ffffffffffffffff81116101565761088f90369060040161207d565b906084359161ffff831683036101565760a43561ffff811680910361015657426044351115610d7a576044356064351115610d3e5761ffff841615610d04576108d7906125a7565b63ffffffff60015460a01c1661ffff604051956108f38761203e565b8287528560208801528460408801526044356060880152606435608088015281811660a08801521660c08601528160e0860152600161010086015233610120860152600052600460205260406000209363ffffffff81511663ffffffff19865416178555602081015180519067ffffffffffffffff8211610c1e57819061097d6001890154612163565b601f8111610cb1575b50602090601f8311600114610c3f57600092610c34575b50508160011b916000199060031b1c19161760018601555b604081015194855167ffffffffffffffff8111610c1e576109d96002830154612163565b601f8111610bd7575b506020601f8211600114610b5957610ac59493928261012093600793610b1c9a9b600092610b4e575b50508160011b916000199060031b1c19161760028201555b6060840151600382015560808401516004820155610a736005820161ffff60a08701511661ffff1982541617815561ffff60c08701511663ffff000082549160101b169063ffff00001916179055565b60e084015160068201550191610a9c6101008201511515849060ff801983541691151516179055565b01518154610100600160a81b03191660089190911b610100600160a81b031617905530906126ec565b7f8aef418f4d4a6d89d9159824341a4f4e00919d9f9a0f7f434db8ca77f5a32d75610b0e6001549463ffffffff8660a01c169485946040519384936060855260608501906120d4565b9083820360208501526120d4565b3360408301520390a263ffffffff60a01b90610b379061230b565b60a01b1663ffffffff60a01b199190911617600155005b015190508b80610a0b565b6002830160005260206000209760005b601f1984168110610bbf575092600183610b1c999a600794610ac599989761012097601f19811610610ba6575b505050811b016002820155610a23565b015160001960f88460031b161c191690558b8080610b96565b828201518a5560019099019860209283019201610b69565b600283016000526020600020601f830160051c810160208410610c17575b601f830160051c82018110610c0b5750506109e2565b60008155600101610bf5565b5080610bf5565b634e487b7160e01b600052604160045260246000fd5b01519050878061099d565b9250600188016000526020600020906000935b601f1984168510610c96576001945083601f19811610610c7d575b505050811b0160018601556109b5565b015160001960f88460031b161c19169055878080610c6d565b81810151835560209485019460019093019290910190610c52565b909150600188016000526020600020601f840160051c810160208510610cfd575b90849392915b601f830160051c82018110610cee575050610986565b60008155859450600101610cd8565b5080610cd2565b60405162461bcd60e51b8152602060048201526012602482015271125b9d985b1a59081cd9585d0818dbdd5b9d60721b6044820152606490fd5b60405162461bcd60e51b8152602060048201526014602482015273496e76616c6964206172726976616c2074696d6560601b6044820152606490fd5b606460405162461bcd60e51b815260206004820152602060248201527f4465706172747572652074696d65206d75737420626520696e206675747572656044820152fd5b34610156576000366003190112610156576000546040516001600160a01b039091168152602090f35b3461015657602080600319360112610156576001600160a01b03610e09612114565b166000526006815260406000206040518081848085549384815201809560005281600020936000905b806007830110610f8e57610e8f95549184828210610f78575b828210610f60575b828210610f47575b828210610f2e575b828210610f15575b828210610efc575b828210610ee3575b5010610ed5575b509050939293038361205b565b604051928392818401908285525180915260408401929160005b828110610eb857505050500390f35b835163ffffffff1685528695509381019392810192600101610ea9565b60e01c815201859087610e82565b6001919463ffffffff8560c01c16815201930184610e7b565b6001919463ffffffff8560a01c16815201930184610e73565b6001919463ffffffff8560801c16815201930184610e6b565b6001919463ffffffff8560601c16815201930184610e63565b6001919463ffffffff8560401c16815201930184610e5b565b6001919463ffffffff85831c16815201930184610e53565b6001919463ffffffff8516815201930184610e4b565b925092506001610100600892865463ffffffff808216835280828d1c168c840152808260401c16604084015260608183821c169084015260808183821c169084015260a08183821c169084015260c09082821c169083015260e01c60e08201520194019201928492938792610e32565b34610156576000366003190112610156576001546040516001600160a01b039091168152602090f35b346101565760003660031901126101565760005460405163615f8f0f60e11b81523360048201526020816024816001600160a01b0386165afa801561055557611078916000916110c2575b50612338565b61108860ff8260a01c16156122bf565b60ff60a01b1916600160a01b17600090815533907f62e78cea01bee320cd4e420270b5ea74000d11b0c9f74754ebdbfc544b05a2589080a2005b6110e4915060203d6020116110ea575b6110dc818361205b565b810190612320565b83611072565b503d6110d2565b346101565760403660031901126101565761110a612114565b6001600160a01b031660009081526006602052604090208054602435908110156101565761113f63ffffffff9160209361212a565b9190546040519260031b1c168152f35b346101565760003660031901126101565761117560018060a01b03600154163314612242565b602047604051908152f35b3461015657604036600319011261015657611199612018565b60243580151581036101565760015461051f9263ffffffff916111d090336001600160a01b03918216149081156111f25750612242565b16600052600460205260076040600020019060ff801983541691151516179055565b9050838316600052600460205260076040600020015460081c163314866101c5565b346101565760203660031901126101565761014063ffffffff80611236612018565b166000526005602052604060002080549060ff600182015460028301546003840154906004850154926006600587015496015496604051988082168a528160201c1660208a015260018060a01b039060401c1660408901526060880152608087015260a0860152818116151560c086015260081c16151560e0840152610100830152610120820152f35b34610156576040366003190112610156576112d9612018565b6112e161202b565b9063ffffffff809116600052600860205260406000209116600052602052602060ff6040600020541615604051908152f35b346101565760203660031901126101565760a063ffffffff80611334612018565b16600052600560205260ff60406000208054906004600382015491015491604051948160201c168552600180871b039060401c16602085015260408401528181161515606084015260081c1615156080820152f35b346101565760003660031901126101565760005460405163615f8f0f60e11b81523360048201526020816024816001600160a01b0386165afa8015610555576113d9916000916110c25750612338565b60ff8160a01c16156114175760ff60a01b1916600055337f5db9ee0a495bf2e6ff9c91a7834c1ba4fdd244a5e8aa4e537bd38aeae4b073aa600080a2005b606460405162461bcd60e51b815260206004820152602060248201527f5061757361626c653a20436f6e7472616374206973206e6f74207061757365646044820152fd5b346101565760203660031901126101565763ffffffff611479612018565b1660005260046020526114d2604060002060038101546004820154600583015461ffff906007850154926114e06114be60026114b760018a0161219d565b980161219d565b604051988998610100808b528a01906120d4565b9088820360208a01526120d4565b60408701959095526060860152808216608086015260101c1660a084015260ff8116151560c084015260081c6001600160a01b031660e08301520390f35b61012036600319011261015657611533612018565b61153b61202b565b60443567ffffffffffffffff81116101565761155b90369060040161207d565b906064359161ffff831683036101565763ffffffff60843516608435036101565760a43580151581036101565760c43563ffffffff811681036101565760e435151560e435036101565761010435151561010435036101565763ffffffff8616600052600460205260ff6007604060002001541615611e1e5763ffffffff86166000526004602052600360406000200154421015611dd95761160560ff60005460a01c16156122bf565b63ffffffff86166000526004602052600560406000200192835461ffff8160101c1615611d9f5763ffffffff60843516151580611d89575b80611d56575b15611d4357506084355b63ffffffff811615611d095761167761ffff61167063ffffffff60009916612555565b98166125a7565b9061168763ffffffff8216612555565b956116a463ffffffff61169d61ffff34166125a7565b9616612555565b916116b060e4356123fd565b946116bd610104356123fd565b97602060018060a01b0360008051602061276983398151915254166044604051809e8193639cd07acb60e01b835260646004840152600560248401525af19a8b156105555760009b611cd5575b5060008051602061276983398151915254604051639cd07acb60e01b8152603260048201526005602482015290602090829060449082906000906001600160a01b03165af1801561055557600090611ca1575b61176891508c612494565b878c828215611c91575b15611c81575b15611c71575b600160a01b6001900360008051602061276983398151915254166040519d8e938493637702dcff60e01b85526004850152602484015260448301525a926000606492602095f19a8b156105555760009b611c3d575b508c63ffffffff60015481604051936117eb8561203e565b818360c01c1685521660208401523360408401528a60608401528c60808401524260a0840152600060c0840152600060e08401528d6101008401528b61012084015260c01c166000526005602052600661012060406000209263ffffffff81511684549067ffffffff00000000602084015160201b1690600160401b600160e01b03604085015160401b169263ffffffff60e01b161717178455606081015160018501556080810151600285015560a08101516003850155600484016118c360c08301511515829060ff801983541691151516179055565b60e0820151815461ff00191690151560081b61ff0016179055610100810151600585015501519101556040519067ffffffffffffffff60c0830190811190831117610c1e5760c082016040528c825260208201928352866040830152151560608201528460808201528660a082015263ffffffff60015460c01c166000526007602052604060002091815183555180519067ffffffffffffffff8211610c1e576119706001850154612163565b601f8111611bf6575b50602090601f8311600114611b815791806005949260a094600092611b76575b50508160011b916000199060031b1c19161760018501555b604081015160028501556119da60608201511515600386019060ff801983541691151516179055565b608081015160048501550151910155336000526006602052604060002063ffffffff60015460c01c16908054600160401b811015610c1e57611a219160018201815561212a565b63ffffffff829392549160031b92831b921b191617905563ffffffff8b16600052600860205263ffffffff604060002091166000526020526040600020600160ff1982541617905561ffff815460101c1694851561025a57611ae288611ae286611ae28e611ae99f8f611ae29f8f611ae29f8f611ae29f8f611ae29f8f611adb611adb98611adb611adb96611adb611ae29e611adb611adb98611adb9d6000190163ffff000082549160101b169063ffff00001916179055565b30906126ec565b33906126ec565b6001549063ffffffff8260c01c169063ffffffff339116827fe772bfc83512e1912de2d84c2d543a508cb3d58f475ed8a5f69b28d56d52f99b600080a433817fe6b9bb16f114333b4c86d3c2ef72e93752ca99f6b8dd2ac6e0ae7fb06792c3e1600080a363ffffffff60c01b90611b5f9061230b565b60c01b1663ffffffff60c01b199190911617600155005b015190503880611999565b906001850160005260206000209160005b601f1985168110611bde5750926005949260019260a09583601f19811610611bc5575b505050811b0160018501556119b1565b015160001960f88460031b161c19169055388080611bb5565b91926020600181928685015181550194019201611b92565b600185016000526020600020601f840160051c810160208510611c36575b601f830160051c82018110611c2a575050611979565b60008155600101611c14565b5080611c14565b909a506020813d602011611c69575b81611c596020938361205b565b810103126101565751998d6117d3565b3d9150611c4c565b9b50611c7b61264c565b9b61177e565b9150611c8b61264c565b91611778565b9150611c9b6125fd565b91611772565b506020813d602011611ccd575b81611cbb6020938361205b565b8101031261015657611768905161175d565b3d9150611cae565b909a506020813d602011611d01575b81611cf16020938361205b565b810103126101565751998d61170a565b3d9150611ce4565b60405162461bcd60e51b81526020600482015260126024820152714e6f20736561747320617661696c61626c6560701b6044820152606490fd5b61ffff611d51911688612396565b61164d565b5063ffffffff88166000526008602052604060002063ffffffff6084351660005260205260ff6040600020541615611643565b5061ffff811663ffffffff60843516111561163d565b60405162461bcd60e51b81526020600482015260126024820152714e6f20617661696c61626c6520736561747360701b6044820152606490fd5b60405162461bcd60e51b815260206004820152601760248201527f466c6967687420616c72656164792064657061727465640000000000000000006044820152606490fd5b60405162461bcd60e51b8152602060048201526011602482015270466c69676874206e6f742061637469766560781b6044820152606490fd5b3461015657600036600319011261015657602063ffffffff60015460c01c16604051908152f35b3461015657600036600319011261015657600080808060018060a01b0360015416611eaa813314612242565b4790828215611ebc575bf11561055557005b506108fc611eb4565b34610156576020806003193601126101565763ffffffff9081611ee6612018565b16918260005260058252604060002054821c169060018060a01b0391826001541633148015611ff8575b611f1a9150612242565b826000526005815260ff60046040600020015416611fc05760059083600052818152611f5460ff60046040600020015460081c161561227f565b8360005252604060002060048101600160ff19825416179055827ff47cfce95e334a4fe10c4d908e8453847e71e6cacdca91b931c3c9eb44f91098600080a25460401c16907f0c6d9c98571c1eb3d8dfdaafb2882da85b29e64cc7ae8111a142d1f11f5617af600080a3005b6064906040519062461bcd60e51b825260048201526011602482015270105b1c9958591e4818dbdb999a5c9b5959607a1b6044820152fd5b5060005260048152611f1a8260076040600020015460081c163314611f10565b6004359063ffffffff8216820361015657565b6024359063ffffffff8216820361015657565b610140810190811067ffffffffffffffff821117610c1e57604052565b90601f8019910116810190811067ffffffffffffffff821117610c1e57604052565b81601f820112156101565780359067ffffffffffffffff8211610c1e57604051926120b2601f8401601f19166020018561205b565b8284526020838301011161015657816000926020809301838601378301015290565b919082519283825260005b848110612100575050826000602080949584010152601f8019910116010190565b6020818301810151848301820152016120df565b600435906001600160a01b038216820361015657565b919091805483101561214d57600052601c60206000208360031c019260021b1690565b634e487b7160e01b600052603260045260246000fd5b90600182811c92168015612193575b602083101461217d57565b634e487b7160e01b600052602260045260246000fd5b91607f1691612172565b906040519182600082546121b081612163565b9081845260209460019160018116908160001461222057506001146121e1575b5050506121df9250038361205b565b565b600090815285812095935091905b8183106122085750506121df93508201013880806121d0565b855488840185015294850194879450918301916121ef565b925050506121df94925060ff191682840152151560051b8201013880806121d0565b1561224957565b60405162461bcd60e51b815260206004820152600e60248201526d139bdd08185d5d1a1bdc9a5e995960921b6044820152606490fd5b1561228657565b60405162461bcd60e51b8152602060048201526011602482015270109bdbdada5b99c818d85b98d95b1b1959607a1b6044820152606490fd5b156122c657565b60405162461bcd60e51b815260206004820152601c60248201527f5061757361626c653a20436f6e747261637420697320706175736564000000006044820152606490fd5b63ffffffff80911690811461025a5760010190565b90816020910312610156575180151581036101565790565b1561233f57565b60405162461bcd60e51b815260206004820152602960248201527f5061757361626c653a2043616c6c6572206973206e6f7420617574686f72697a60448201526832b2103830bab9b2b960b91b6064820152608490fd5b60019182805b6123aa575b50505050600090565b63ffffffff80821661ffff841681116123f65760ff91600090861681526020916008835260409283832091835252205416156123ef576123e99061230b565b8361239c565b9250505090565b50506123a1565b1561248d5760015b60008051602061276983398151915254604051639cd07acb60e01b815260ff92909216600483015260006024830181905260209183916044918391906001600160a01b03165af19081156105555760009161245e575090565b90506020813d602011612485575b816124796020938361205b565b81010312610156575190565b3d915061246c565b6000612405565b8015612547575b8115612537575b60018060a01b036000805160206127698339815191525416916040519163022f65e760e31b835260048301526024820152602081606481600080968160448401525af191821561252b5780926124f757505090565b9091506020823d602011612523575b816125136020938361205b565b8101031261252057505190565b80fd5b3d9150612506565b604051903d90823e3d90fd5b905061254161264c565b906124a2565b5061255061264c565b61249b565b6020600091604460018060a01b036000805160206127698339815191525416916040519485938492639cd07acb60e01b84526004840152600460248401525af19081156105555760009161245e575090565b60008051602061276983398151915254604051639cd07acb60e01b8152600481019290925260036024830152602090829060449082906000906001600160a01b03165af19081156105555760009161245e575090565b60018060a01b036000805160206127698339815191525416604051639cd07acb60e01b8152602081604481600080968160048401528160248401525af191821561252b5780926124f757505090565b60018060a01b036000805160206127698339815191525416604051639cd07acb60e01b815260208160448160008096816004840152600560248401525af191821561252b5780926124f757505090565b60018060a01b036000805160206127698339815191525416604051639cd07acb60e01b815260208160448160008096816004840152600360248401525af191821561252b5780926124f757505090565b7f9e7b61f58c47dc699ac88507c4f5bb9f121c03808c5676a8078fe583e4649700546001600160a01b0392908316803b1561015657600092836044926040519687958694635ca4b5b160e11b865260048601521660248401525af18015610555576127545750565b67ffffffffffffffff8111610c1e5760405256fe9e7b61f58c47dc699ac88507c4f5bb9f121c03808c5676a8078fe583e4649701a26469706673582212207d767b99ebdb4595d436e01780867d631676d212a821bc654c91e462fefced9864736f6c63430008180033",
  "linkReferences": {},
  "deployedLinkReferences": {}
}